:1000000012C0189518951895189518951895189563
:100010001895189518951895189518951895189578
:100020001895189518958FE58DBFCCEFE4E94E2E05
:1000300084E08EBFD3E0F3E05F2EA89584B7082E4E
:10004000877F84BF88E1992781BD91BDEEEFF3E002
:10005000A0E6B0E088278D933197E9F783E389B96B
:1000600080E080BD88E18AB9662480E08FBD86E0AB
:100070008EBD80E090E09DBD8CBD86E08EBD87EE9C
:1000800093E045D0EF93FF93E6EEF2E037D0FF9197
:10009000EF918EB5887F8EBD88E02CD088E02AD085
:1000A00088E028D088E026D088E024D088E022D0DC
:1000B00088E020D088E01ED088E01CD088E01AD0EC
:1000C000ACE7B3E0ECE4F0E043D006D0E2E0F2E0ED
:1000D0000BD0CFCFF894FFCFACE7B3E08D9188235E
:1000E00011F008D0FBCF089521D0802D11F002D05F
:1000F000FBCF08955D9BFECF8CB908953197F1F742
:100100000895689462F80895E89462F80895EF936A
:10011000FF93EE27E82BE92B31F0E0EDF7E0319784
:10012000F1F70197D1F7FF91EF910895C8953196B6
:1001300000200895000F111F221F331F08950095FE
:100140001095209530950F5F1F4F2F4F3F4F08950B
:10015000019110810EC001911191219130810BC04C
:100160000191108117FF05C03FEF2FEF04C0008100
:1001700011272227332737FF03C0E1DF8DE28D935C
:10018000CF93DF93CF92DF92EF92AA24BB24CC24AB
:10019000DD24EE2440E2CAE0DD2755E093E38881C8
:1001A000890F87FD9F7083FD907F891B89935A95E6
:1001B000A9F7C0DFAA1CBB1CCC1CDD1CEE1C4A9599
:1001C00051F7E894EFE0FF2782910ED0EB30E0F793
:1001D0001EF068948A2D0CD088278D93EF90DF90C5
:1001E000CF90DF91CF910895982F829501D0892FDC
:1001F0008F70805D26F0803309F4089568948D93A4
:08020000089520487A20000057
:00000001FF
