:1000000012C018951895189518955AC018951895F6
:100010001895189518951895189518951895189578
:100020001895189518958FE58DBFCCEFE4E94E2E05
:1000300084E08EBFD3E0F3E05F2EA89584B7082E4E
:10004000877F84BF88E1992781BD91BDEEEFF3E002
:10005000A0E6B0E088278D933197E9F783E389B96B
:1000600080E080BD88E18AB9662480E08FBD85E0AC
:100070008EBD79B7706279BFB898C09A7894A2E6BD
:10008000B0E04D915C91A0E6B0E00D911C91041799
:10009000150709F412C0E0E5F2E059D0ACE7B3E08F
:1000A000E0E6F0E07CD04BD058D0A0E6B0E08D91F7
:1000B0009C91A2E6B0E08D939C93E1CFF894FFCFA2
:1000C0000F921F922F923F924F925F927F92AF9228
:1000D000BF920F931F932F933F934F935F936F9311
:1000E0007F938F939F93AF93BF93CF93DF93EF93C0
:1000F000FF938FB78F93A6E4B0E08D919C91A0E61B
:10010000B0E08D939C938F918FBFFF91EF91DF9122
:10011000CF91BF91AF919F918F917F916F915F919F
:100120004F913F912F911F910F91BF90AF907F9072
:100130005F904F903F902F901F900F901895ACE7D5
:10014000B3E08D91882311F00BD0FBCF089515D02B
:10015000802D11F005D0FBCF08958DE001D08AE00D
:100160005D9BFECF8CB908953197F1F7089568949F
:1001700062F80895E89462F80895C89531960020D1
:100180000895000F111F221F331F08950095109529
:10019000209530950F5F1F4F2F4F3F4F08950191CE
:1001A00010810EC001911191219130810BC00191FC
:1001B000108117FF05C03FEF2FEF04C0008111270A
:1001C0002227332737FF03C0E1DF8DE28D93CF93E2
:1001D000DF93CF92DF92EF92AA24BB24CC24DD24BC
:1001E000EE2440E2CAE0DD2755E093E38881890FE1
:1001F00087FD9F7083FD907F891B89935A95A9F78E
:10020000C0DFAA1CBB1CCC1CDD1CEE1C4A9551F7A0
:10021000E894EFE0FF2782910ED0EB30E0F71EF07C
:1002200068948A2D0CD088278D93EF90DF90CF9023
:10023000DF91CF910895982F829501D0892F8F70EB
:10024000805D26F0803309F4089568948D930895B5
:1002500063617074757265642076616C7565000009
:00000001FF
