:1000000012C0189518951895189518951895189563
:100010001895189518951895189518951895189578
:100020001895189518958FE58DBFCCEFE4E94E2E05
:1000300084E08EBFD3E0F3E05F2EA89584B7082E4E
:10004000877F84BF88E1992781BD91BDEEEFF3E002
:10005000A0E6B0E088278D933197E9F783E389B96B
:1000600080E080BD88E18AB9662481E080938800C1
:1000700000918800043110F009F01CC0A8E8B0E03D
:100080000D911127A8E8B0E04D915527B3D0A8E80D
:10009000B0E0AD90BB24AEE5B0E0AA0CBB1CAA0D4D
:1000A000BB1D0D931C93A8E8B0E08C918F5F8C93DF
:1000B00008F4DECF7AD081E0809388000091880038
:1000C000043110F009F03FC0EEEDF2E068D0ACE78B
:1000D000B3E0E8E8F0E0B9D05AD0EAEEF2E05FD061
:1000E000ACE7B3E0E8E8F0E0A190BB24EEE5F0E097
:1000F000AA0CBB1CEA0DFB1D99D049D0E0EFF2E041
:100100004ED0ACE7B3E0E8E8F0E09FD040D0E6EFB7
:10011000F2E045D0ACE7B3E0E8E8F0E0A190BB2422
:10012000EEE5F0E0AA0CBB1CEA0DFB1D7FD02FD042
:100130003CD0E2E0F0E040D0A8E8B0E08C918F5FE6
:100140008C9308F4BBCFB6CFF894FFCF04D052D035
:1001500000FC0CD008950024E89457FF02C009D099
:10016000689400F80BD010F80124089502D009D04B
:100170000895509540954F5F5F4F0895E89417FF9D
:100180000895009510950F5F1F4F68940895ACE790
:10019000B3E08D91882311F00BD0FBCF089534D0BC
:1001A000802D11F005D0FBCF08958DE001D08AE0BD
:1001B0005D9BFECF8CB9089588EE93E00CD031970B
:1001C000D9F708953197F1F70895689462F8089582
:1001D000E89462F80895EF93FF93EE27E82BE92B5C
:1001E00031F0E0EDF7E03197F1F70197D1F7FF91AA
:1001F000EF9108950F92B801469F8001479F100D1F
:10020000569F100D0F900895C895319600200895BF
:10021000000F111F221F331F089500951095209580
:1002200030950F5F1F4F2F4F3F4F08950191108161
:100230000EC001911191219130810BC0019110816B
:1002400017FF05C03FEF2FEF04C0008111272227C1
:10025000332737FF03C0E1DF8DE28D93CF93DF9328
:10026000CF92DF92EF92AA24BB24CC24DD24EE248B
:1002700040E2CAE0DD2755E093E38881890F87FDDE
:100280009F7083FD907F891B89935A95A9F7C0DFE2
:10029000AA1CBB1CCC1CDD1CEE1C4A9551F7E89433
:1002A000EFE0FF2782910ED0EB30E0F71EF068946C
:1002B0008A2D0CD088278D93EF90DF90CF90DF911F
:1002C000CF910895982F829501D0892F8F70805DEE
:1002D00026F0803309F4089568948D9308954D6F46
:1002E0006A655F706F6C6528000029203D20000062
:0C02F0002020202000005E32203D200075
:00000001FF
