:1000000012C059C0189518951895189518951895F7
:100010001895189518951895189518951895189578
:100020001895189518958FE58DBFCCEFE4E94E2E05
:1000300084E08EBFD3E0F3E05F2EA89584B7082E4E
:10004000877F84BF88E1992781BD91BDEEEFF3E002
:10005000A0E6B0E088278D933197E9F783E389B96B
:1000600080E080BD88E18AB9662485B78C7F85BF32
:100070007BB770647BBF8A98929AE4E9F1E05BD029
:1000800060D0E1E0F0E064D07894EAE9F1E053D0A8
:1000900058D0E1E0F0E05CD075B77F70706A75BF52
:1000A0008895E0EAF1E047D04CD0E1E0F0E050D0B4
:1000B000ECCFF894FFCF0F921F922F923F924F9266
:1000C0005F927F92AF92BF920F931F932F933F93B4
:1000D0004F935F936F937F938F939F93AF93BF9350
:1000E000CF93DF93EF93FF938FB78F93E6EAF1E01F
:1000F00022D027D084EF91E03AD070E47ABF8F917C
:100100008FBFFF91EF91DF91CF91BF91AF919F9101
:100110008F917F916F915F914F913F912F911F919F
:100120000F91BF90AF907F905F904F903F902F9036
:100130001F900F9018952AD0802D11F005D0FBCF7D
:1001400008958DE001D08AE05D9BFECF8CB90895C3
:1001500088EE93E00CD03197D9F708953197F1F7F5
:100160000895689462F80895E89462F80895EF930A
:10017000FF93EE27E82BE92B31F0E0EDF7E0319724
:10018000F1F70197D1F7FF91EF910895C895319656
:10019000002008957265736574007370696D0000C6
:0C01A0006264696D0000627265616B00B2
:00000001FF
