:1000000012C0189518951895189518951895189563
:100010001895189518951895189518951895189578
:100020001895189518958FE58DBFCCEFE4E94E2E05
:1000300084E08EBFD3E0F3E05F2EA89584B7082E4E
:10004000877F84BF88E1992781BD91BDEEEFF3E002
:10005000A0E6B0E088278D933197E9F783E389B96B
:1000600080E080BD88E18AB96624E6E6F1E08BD0C5
:100070008DD0A0E6B0E094D10C9285D0ACE7B3E08F
:10008000E0E6F0E00FD285D092D080D0A0E6B0E0DC
:1000900087D10C9278D0ACE7B3E0E0E6F0E002D292
:1000A00078D085D073D0A0E6B0E07AD10C926BD036
:1000B000ACE7B3E0E0E6F0E0F5D16BD078D0E0E774
:1000C000F1E061D063D0A1E6B0E060D15CD05ED059
:1000D000ACE6B0E05BD157D059D0A7E7B0E066D12D
:1000E00052D054D0A9E7B0E063D14DD04FD0ADE7A6
:1000F000B0E05ED148D0A1E6B0E04DD0E2E4F5E05A
:1001000050D0ACE6B0E047D0E2E4F5E04AD0ACE74E
:10011000B3E0E7E7F0E0B7D13CD0E6E4F5E041D06A
:10012000ACE7B3E0E9E7F0E0B1D133D0E2E4F5E0E9
:1001300038D0ACE7B3E0AF93BF93EDE7F0E02BD15D
:1001400046D011E002E0BF91AF9147D1ECE7F3E078
:10015000ACE7B3E0F1D11DD0E0E5F5E022D027D047
:1001600084CFF894FFCF00AA04340957CC79EF3834
:100170004A6F736566004D69786564006207EA80BE
:100180000B009A9919408E2E9F2E0895E82DF92D77
:100190000895ACE7B3E08D91882311F00BD0FBCF2D
:1001A0000895FED0802D11F005D0FBCF08958DE08D
:1001B00001D08AE05D9BFECF8CB908953197F1F7AD
:1001C0000895689462F80895E89462F808958DE2BD
:1001D00007FD8D938F2D881F802F881F8F57082F25
:1001E0006894F7F8802F87FF15C080958395082FB6
:1001F00080E38D938EE28D93802F815228F080E3EF
:100200008D9399279C93089544270A95802F09F18F
:1002100092D01FC0805230F09EE49D9381E48D9374
:100220009D93EFCF4427DF92EF92FF920F938FE1E0
:10023000801B11F0082F7FD085D09EE29D930F91F7
:10024000FF90EF90DF9044270395003209F4D7CF59
:1002500027D03F93E6EDF2E038E12F2D1E2D0D2D36
:10026000FF24EE24DD244427000F111F221F88F4F1
:100270002F923F9295D0102C93D0202C91D0302CDF
:100280008FD03197410DD21CE31CF01C3F902F9072
:1002900001C0339631963A9539F73F9107D0B3CFE5
:1002A000DD0CEE1CFF1C0A95D9F70895002719E014
:1002B00058D08F93802B11F0039501C08F911A9520
:1002C000B9F7802F882309F49ACF8F91805D8D93A1
:1002D0000A95D9F796CF0065CD1D80B2E60E40593C
:1002E0007307A0ACB90350D6DC01286BEE0094353F
:1002F0007700CA9A3B0065CD1D00B2E60E00597327
:100300000700ACB90300D6DC01006BEE00003577C6
:1003100000009A3B0000CD1D0000E60E00007307B0
:100320000000B9030000DC010000EE0000007700CF
:1003300000003B000000F694E794D79447950A9597
:10034000D1F7089500270DD08F9303958F2D8E2917
:100350008D29842BC1F78F91805D8D930A95D9F7F4
:1003600050CF1F930F93002710E2440FDD1CEE1CAB
:10037000FF1C001F802F9AE0890B10F0082F439577
:100380001A9599F7802F0F911F91089509D00D921A
:100390000020E1F70895D190E190F1900191089546
:1003A000C89531960020089591E005C092E003C001
:1003B00094E001C098E0F4DF0D929A95E1F708957A
:1003C00099278D9193958823E1F7939511968C93B6
:1003D00011978E919A95D1F70895EA2FFB2F00245B
:1003E0004C918D9103948E32E1F711248D911394E9
:1003F0008823E1F71A94101640F41197202F211941
:10040000239580E38D932A95E9F7113039F59927E3
:10041000AE2FBF2FA00DB91FA00FB91F8C919C93B9
:10042000853308F421C031E08E918E32E9F38D32AC
:1004300041F0830F8A3319F480E331E001C03327A0
:100440008C93AE1789F7332341F0AE2FBF2FB8DF5F
:1004500081E34D3209F43196808308958827E00DB9
:10046000F81FE00FF81F80830895000F111F221F4F
:10047000331F089500951095209530950F5F1F4FFD
:100480002F4F3F4F0895019110810EC0019111919E
:10049000219130810BC00191108117FF05C03FEF02
:1004A0002FEF04C0008111272227332737FF03C015
:1004B000E1DF8DE28D93CF93DF93CF92DF92EF92C6
:1004C000AA24BB24CC24DD24EE2440E2CAE0DD27AC
:1004D00055E093E38881890F87FD9F7083FD907FAE
:1004E000891B89935A95A9F7C0DFAA1CBB1CCC1C99
:1004F000DD1CEE1C4A9551F7E894EFE0FF2782914E
:100500000ED0EB30E0F71EF068948A2D0CD08827CF
:100510008D93EF90DF90CF90DF91CF910895982F3A
:10052000829501D0892F8F70805D26F0803309F489
:10053000089568948D93089581918D938823E1F7B0
:100540000895202C2000202C2074656C2E200000A3
:0A0550002070726F6D696C65200069
:00000001FF
