:1000000012C0189518951895189518951895189563
:100010001895189518951895189518951895189578
:100020001895189518958FE58DBFCCEFE4E94E2E05
:1000300084E08EBFD3E0F3E05F2EA89584B7082E4E
:10004000877F84BF88E1992781BD91BDEEEFF3E002
:10005000A0E6B0E088278D933197E9F783E389B96B
:1000600080E080BD88E18AB96624889A909A05D09C
:10007000909803D0FBCFF894FFCF1F932F933F931B
:1000800015EE21E135ED3A95F1F72A95D9F71A9554
:10009000C1F73F912F911F9108953197F1F708957E
:0C00A000689462F80895E89462F80895EE
:00000001FF
