:1000000012C0189518951895189518951895189563
:100010001895189518951895189518951895189578
:100020001895189518958FE58DBFCCEFE4E94E2E05
:1000300084E08EBFD3E0F3E05F2EA89584B7082E4E
:10004000877F84BF88E1992781BD91BDEEEFF3E002
:10005000A0E6B0E088278D933197E9F783E389B96B
:1000600080E080BD88E18AB9662487E080936000E3
:1000700000916000043080E010F009F081E08F937F
:10008000009160000B3081E008F080E09F918923AF
:10009000882309F405C0E0E6F2E0C8D0CDD004C062
:1000A000E6E6F2E0C3D0C8D08AE0809360008AE040
:1000B0008093610000916000053081E010F009F04C
:1000C00080E08F93009161000A3081E008F480E0C5
:1000D0009F91892B882309F405C0ECE6F2E0A6D0B5
:1000E000ABD004C0E2E7F2E0A1D0A6D080E08093DC
:1000F000600081E08093610082E080936200009163
:100100006000013080E010F009F081E08F930091F1
:100110006100013080E010F009F081E09F918923B7
:100120008F9300916200013080E010F009F081E0CF
:100130009F918923882309F405C0E0E6F2E076D098
:100140007BD004C0E6E6F2E071D076D080E090E0AB
:10015000A3E6B0E08D939C9381E090E0A5E6B0E04B
:100160008D939C9382E090E0A7E6B0E08D939C9302
:10017000A3E6B0E00D911C91003050E0150780E03F
:100180000CF481E08F93A5E6B0E00D911C91003056
:1001900050E0150780E00CF481E09F91892B8F934C
:1001A000A7E6B0E00D911C91003050E0150780E00B
:1001B0000CF481E09F91892B882309F405C0E0E6C7
:1001C000F2E034D039D004C0E6E6F2E02FD034D0EB
:1001D00086E08093600083E080936100009160007E
:1001E000043080E010F009F081E08F93009160000E
:1001F0000B3081E008F080E09F9189238F9300917C
:100200006100023081E010F009F080E09F91892BBD
:10021000882309F405C0E0E6F2E008D00DD004C060
:10022000E6E6F2E003D008D0F894FFCF15D0802D99
:1002300011F005D0FBCF08958DE001D08AE05D9BE1
:10024000FECF8CB908953197F1F70895689462F85C
:100250000895E89462F80895C895319600200895AD
:1002600054727565000046616C7365007472756543
:08027000000066616C7365007B
:00000001FF
