:1000000012C0189518951895189518951895189563
:100010001895189518951895189518951895189578
:100020001895189518958FE58DBFCCEFE4E94E2E05
:1000300084E08EBFD3E0F3E05F2EA89584B7082E4E
:10004000877F84BF88E1992781BD91BDEEEFF3E002
:10005000A0E6B0E088278D933197E9F783E389B96B
:1000600080E080BD88E18AB96624E8EAF2E058D0F1
:1000700036E02FD0ACE7B3E0E8D0A0E6B0E00D93D7
:100080001C93E2ECF0E0A0E6B0E08D919C91A2E63A
:10009000B0E06CD0EAECF2E043D0ACE7B3E0E0E6ED
:1000A000F0E082D035D0E6EDF2E03AD0ACE7B3E054
:1000B000E2E6F0E080D02CD039D038D0D6CFF8941A
:1000C000FFCF00112234455768798B9CADBECFE03D
:1000D000F100ACE7B3E018D0883091F08D3039F002
:1000E0003323C9F38D933A9563FE23D0F4CF63FC99
:1000F00004C08DE01ED08AE01CD088278C93089520
:1001000018D011973395E7CF5F9BFECF8CB1089540
:10011000ACE7B3E08D91882311F00BD0FBCF0895AD
:1001200015D0802D11F005D0FBCF08958DE001D0C2
:100130008AE05D9BFECF8CB908953197F1F7089561
:10014000689462F80895E89462F80895C895319625
:100150000020089591E005C092E003C094E001C042
:1001600098E0F4DF0D929A95E1F70895E80FF91FF2
:10017000F1CF040F151F261F371F0895000F111F01
:10018000221F331F089500951095209530950F5F1D
:100190001F4F2F4F3F4F0895019110810EC00191C5
:1001A0001191219130810BC00191108117FF05C081
:1001B0003FEF2FEF04C0008111272227332737FF9D
:1001C00003C0E1DF8DE28D93CF93DF93CF92DF9277
:1001D000EF92AA24BB24CC24DD24EE2440E2CAE022
:1001E000DD2755E093E38881890F87FD9F7083FDAC
:1001F000907F891B89935A95A9F7C0DFAA1CBB1C65
:10020000CC1CDD1CEE1C4A9551F7E894EFE0FF276B
:1002100082910ED0EB30E0F71EF068948A2D0CD05E
:1002200088278D93EF90DF90CF90DF91CF91089545
:10023000982F829501D0892F8F70805D26F08033B2
:1002400009F4089568948D930895002711272227B3
:1002500033271DD08A3328F4803318F005D015D009
:10026000F9CF0EF490CF089580538F93402F512FE4
:10027000622F732F83DF82DF7CDF80DF8F919927EE
:10028000080F191F291F391F08958D910895E894AB
:10029000FCDF8032E9F38B32D9F38930C9F38D3238
:1002A00011F46894F2CF0895456E74657220706FF2
:1002B000736974696F6E203020746F203135205B54
:1002C000456E7465725D203A20004E6120706F7A31
:1002D000696369200000206A652056616C7565209D
:0202E00000001C
:00000001FF
