:1000000019C018951895189518951895189518955C
:100010001895189518951895189518951895189578
:100020001895189518951895189518951895189568
:10003000189518958FEF8DBFCCE9E4E34E2E84E040
:100040008EBFD4E0F4E05F2EA89584B7082E877F9A
:1000500084BF88E199278093600090936000EEEF61
:10006000F3E0A0E0B1E088278D933197E9F76624AB
:10007000209A2198299A85B191E0892785B9199B01
:1000800004C084EF91E010D003C08DE790E00CD065
:10009000F2CFF894FFCF3197F1F70895689462F8A2
:1000A0000895E89462F80895EF93FF93EE27E82B04
:1000B000E92B31F0E0EDF7E03197F1F70197D1F757
:0600C000FF91EF9108958D
:00000001FF
