:1000000012C0189518951895189518951895189563
:100010001895189518951895189518951895189578
:100020001895189518958FE58DBFCCEFE4E94E2E05
:1000300084E08EBFD3E0F3E05F2EA89584B7082E4E
:10004000877F84BF88E1992781BD91BDEEEFF3E002
:10005000A0E6B0E088278D933197E9F783E389B96B
:1000600080E080BD88E18AB96624A0E6B0E0EEE5D4
:10007000F4E093D1ACE7B3E0E0E6F0E081D1A1D0C9
:1000800088D08FD0ACE7B3E0AF93BF93E0E6F0E069
:1000900077D197D011E001E0BF91AF9193D1ECE718
:1000A000F3E0A4E6B0E0D6D1A4E6B0E074D079D015
:1000B000ACE7B3E0AF93BF93E0E6F0E061D181D06D
:1000C00011E002E0BF91AF917DD1ECE7F3E0A4E64F
:1000D000B0E0C0D1A4E6B0E05ED063D0ACE7B3E05E
:1000E000AF93BF93E0E6F0E04BD16BD011E003E0BB
:1000F000BF91AF9167D1ECE7F3E0A4E6B0E0AAD1FD
:10010000A4E6B0E048D04DD0ACE7B3E0AF93BF93E6
:10011000E0E6F0E035D155D0112701E0BF91AF9175
:1001200051D1ECE7F3E0A4E6B0E094D1A4E6B0E06E
:1001300032D037D0ACE7B3E0AF93BF93E0E6F0E066
:100140001FD13FD0112702E0BF91AF913BD1ECE727
:10015000F3E0A4E6B0E07ED1A4E6B0E01CD021D06C
:10016000ACE7B3E0AF93BF93E0E6F0E009D129D06C
:10017000112703E0BF91AF9125D1ECE7F3E0A4E6AE
:10018000B0E068D1A4E6B0E006D00BD06ECFF89412
:10019000FFCFACE7B3E08D91882311F005D0FBCF02
:1001A00008958DE001D08AE05D9BFECF8CB9089563
:1001B0003197F1F70895689462F80895E89462F829
:1001C00008958DE207FD8D938F2D881F802F881F46
:1001D0008F57082F6894F7F8802F87FF15C08095F8
:1001E0008395082F80E38D938EE28D93802F81522B
:1001F00028F080E38D9399279C93089544270A95CE
:10020000802F09F192D01FC0805230F09EE49D9360
:1002100081E48D939D93EFCF4427DF92EF92FF927D
:100220000F938FE1801B11F0082F7FD085D09EE2C5
:100230009D930F91FF90EF90DF904427039500323C
:1002400009F4D7CF27D03F93EAECF2E038E12F2D25
:100250001E2D0D2DFF24EE24DD244427000F111F39
:10026000221F88F42F923F9290D0102C8ED0202CF9
:100270008CD0302C8AD03197410DD21CE31CF01C5D
:100280003F902F9001C0339631963A9539F73F91C0
:1002900007D0B3CFDD0CEE1CFF1C0A95D9F70895EB
:1002A000002719E058D08F93802B11F0039501C0DF
:1002B0008F911A95B9F7802F882309F49ACF8F91DF
:1002C000805D8D930A95D9F796CF0065CD1D80B2DC
:1002D000E60E40597307A0ACB90350D6DC01286B79
:1002E000EE0094357700CA9A3B0065CD1D00B2E65A
:1002F0000E0059730700ACB90300D6DC01006BEEA9
:100300000000357700009A3B0000CD1D0000E60E8E
:10031000000073070000B9030000DC010000EE00DC
:100320000000770000003B000000F694E794D794AB
:1003300047950A95D1F7089500270DD08F9303951F
:100340008F2D8E298D29842BC1F78F91805D8D9300
:100350000A95D9F750CF1F930F93002710E2440F4F
:10036000DD1CEE1CFF1C001F802F9AE0890B10F093
:10037000082F43951A9599F7802F0F911F91089593
:10038000D190E190F19001910895C89531960020A7
:10039000089591E005C092E003C094E001C098E0A8
:1003A000F4DF0D929A95E1F7089599278D91939531
:1003B0008823E1F7939511968C9311978E919A95D6
:1003C000D1F70895EA2FFB2F00244C918D910394CF
:1003D0008E32E1F711248D9113948823E1F71A945A
:1003E000101640F41197202F2119239580E38D9347
:1003F0002A95E9F7113039F59927AE2FBF2FA00DB7
:10040000B91FA00FB91F8C919C93853308F421C0AC
:1004100031E08E918E32E9F38D3241F0830F8A33D1
:1004200019F480E331E001C033278C93AE1789F7CC
:10043000332341F0AE2FBF2FB8DF81E34D3209F4F3
:100440003196808308958827E00DF81FE00FF81F8C
:100450008083089581918D938823E1F70895E1E2E7
:02046000454114
:00000001FF
