:1000000012C0189518951895189518951895189563
:100010001895189518951895189518951895189578
:100020001895189518958FE58DBFCCEFE4E94E2E05
:1000300084E08EBFD3E0F3E05F2EA89584B7082E4E
:10004000877F84BF88E1992781BD91BDEEEFF3E002
:10005000A0E6B0E088278D933197E9F783E389B96B
:1000600080E080BD88E18AB99BD0662486E886B9A5
:1000700080E487B981D080E090E0A7E6B0E08D937E
:100080009C9381E08093600000916000083010F044
:1000900009F01EC007B1007F056007B9DDD1A1E6F8
:1000A000B0E08D939C93A7E6B0E00D911C91A1E682
:1000B000B0E04D915C91040F151FA7E6B0E00D93E1
:1000C0001C93A0E6B0E08C918F5F8C9308F4DCCF9A
:1000D000E2E3F7E0C5D2E7E6F0E0D190E080FF246C
:1000E0000027E7D132D2EDE0F0E0A3E6B0E01BD389
:1000F000E6E3F7E0B5D2E3E6F0E0B7D17CD2EDE09D
:10010000F0E0A3E6B0E00FD3EAE3F7E0A9D2E3E63C
:10011000F0E0ABD11AD2EDE0F0E0A3E6B0E003D31B
:10012000ACE7B3E0AF93BF93E3E6F0E09ED1B5D088
:1001300011E003E0BF91AF91A9D2ECE7F3E0A9E6AB
:10014000B0E0ECD28FE715E026D0A9E6B0E008D009
:10015000EEE3F7E00BD08FCFF894FFCFACE7B3E03E
:100160008D91882311F05ED0FBCF089575D2802D3C
:1001700011F058D0FBCF089581E05AD00ED080E81E
:1001800057C08FE7213039F08FEB223021F08FE814
:10019000233009F08FEC810F4BC083E0992772C0A8
:1001A0008AEF90E06FD0BF9ABE9ABD9ABC9ABB9A74
:1001B000BA9AC29885E090E065D0C398C798C6986F
:1001C000C59AC49AC39AEF93FF93E4ECF0E050D041
:1001D000FF91EF91C39853D0C39AEF93FF93E4EC50
:1001E000F0E046D0FF91EF91C39849D0C39AEF93C6
:1001F000FF93E4ECF0E03CD0FF91EF91C3983FD047
:10020000C498C39AEF93FF93E4ECF0E031D0FF91F0
:10021000EF91C39834D088E20BD08EE009D086E00D
:1002200007D00895C29A829505D004D028D00895A9
:10023000C298F9CF859510F4C49A01C0C4988595E9
:1002400010F4C59A01C0C598859510F4C69A01C0EE
:10025000C698859510F4C79A01C0C798C39AEF93C2
:10026000FF93E4ECF0E004D0FF91EF91C398089580
:100270000895689462F80895E89462F8089581E01A
:1002800090E000C0EF93FF93EE27E82BE92B11F0ED
:10029000E0EDF7E0FF91EF9108958DE207FD8D937A
:1002A0008F2D881F802F881F8F57082F6894F7F88D
:1002B000802F87FF15C080958395082F80E38D934D
:1002C0008EE28D93802F815228F080E38D939927C1
:1002D0009C93089544270A95802F09F192D01FC05E
:1002E000805230F09EE49D9381E48D939D93EFCFF7
:1002F0004427DF92EF92FF920F938FE1801B11F062
:10030000082F7FD085D09EE29D930F91FF90EF90B4
:10031000DF9044270395003209F4D7CF27D03F93CD
:10032000E2EAF3E038E12F2D1E2D0D2DFF24EE24FF
:10033000DD244427000F111F221F88F42F923F92C3
:100340008BD1102C89D1202C87D1302C85D131979D
:10035000410DD21CE31CF01C3F902F9001C033963E
:1003600031963A9539F73F9107D0B3CFDD0CEE1CAB
:10037000FF1C0A95D9F70895002719E058D08F93EC
:10038000802B11F0039501C08F911A95B9F7802F3A
:10039000882309F49ACF8F91805D8D930A95D9F7C0
:1003A00096CF0065CD1D80B2E60E40597307A0AC14
:1003B000B90350D6DC01286BEE0094357700CA9A59
:1003C0003B0065CD1D00B2E60E0059730700ACB9C5
:1003D0000300D6DC01006BEE0000357700009A3B8D
:1003E0000000CD1D0000E60E000073070000B903F9
:1003F0000000DC010000EE000000770000003B0080
:100400000000F694E794D79447950A95D1F708959C
:1004100000270DD08F9303958F2D8E298D29842B46
:10042000C1F78F91805D8D930A95D9F750CF1F93B7
:100430000F93002710E2440FDD1CEE1CFF1C001F71
:10044000802F9AE0890B10F0082F43951A9599F7A1
:10045000802F0F911F910895369A3699FECF369AC4
:100460003699FECF84B195B10895D190E190F19085
:100470000191089521913191419151910895102F49
:1004800090E8FF0C001F0927990FF7941078652F4B
:1004900090E8440F551F5927990F47956078003809
:1004A0000895FF0C90E89027110F9795F794092F66
:1004B0000895102FBD2CDE2CEF2CF02E11234AF4C2
:1004C000B094D094E094F0949FEFB91AD90AE90A55
:1004D000F90A0EE1FF2039F4FE2CED2CDB2CBB24B5
:1004E0000850C2F766C032F00A95BB0CDD1CEE1C4A
:1004F000FF1CF9CF01D0D5CFB7FE089590E8B9160B
:1005000011F4D0FE08959FEFD91AE90AF90A09F407
:1005100003950895502F2D2D3E2D4F2D612F0895B9
:100520002DEC3CEC4CEC5DE366270FC09EDFF2DF68
:10053000DD24EE2490E8F92E0FE307C09BDF05C011
:100540002227332740E251E46627552351F1002347
:1005500081F195DF71F11627005850580894050B6A
:1005600018F407FD03C025C007FD23C04695379545
:100570002795F694E794D79422D0FF202AF0DD0C3B
:10058000EE1CFF1C015073F09D2D969548F0DD2068
:100590003AF4EE202AF491E0D90E9927E91EF91ECB
:1005A00080CF07C09FE7092FF92A9FEFD92EE92EA8
:1005B0000895DD24EE24FF240027112708959F923B
:1005C0009924AA24BB2488E1D216E306F40628F075
:1005D000D21AE30AF40A089401C08894991CAA1C50
:1005E000BB1CDD0CEE1CFF1C8A9571F7D92CEA2C84
:1005F000FB2C9F90089543DFE1F25038D1F216278B
:10060000005850580894051F12F418F4CBCF08F086
:10061000D0CF0BD0FF202AF0BB0CDD1CEE1CFF1C42
:1006200040CF0F5F0BF4BECF3CCF9F929924AA24FA
:10063000BB24992788E1990CAA1CBB1CDD1CEE1C6D
:10064000FF1C30F4920EA31EB41ED91EE91EF91E23
:100650008A9589F79F900895C8953196002008954E
:10066000FBDF202DF9DF302DF7DF402DF5DF502D9A
:10067000089599278D9193958823E1F79395119685
:100680008C9311978E919A95D1F70895EA2FFB2FAD
:1006900000244C918D9103948E32E1F711248D91B9
:1006A00013948823E1F71A94101640F41197202F21
:1006B0002119239580E38D932A95E9F7113039F5B7
:1006C0009927AE2FBF2FA00DB91FA00FB91F8C9176
:1006D0009C93853308F421C031E08E918E32E9F38A
:1006E0008D3241F0830F8A3319F480E331E001C089
:1006F00033278C93AE1789F7332341F0AE2FBF2FEA
:10070000B8DF81E34D3209F431968083089588275C
:10071000E00DF81FE00FF81F8083089581918D93FD
:100720008823E1F7089594E081918D939A95E1F7FC
:100730000895000000410000A040000080442056C1
:020740000000B7
:00000001FF
