:1000000012C0189518951895189518951895189563
:100010001895189518951895189518951895189578
:100020001895189518958FE58DBFCCEFE4E94E2E05
:1000300084E08EBFD3E0F3E05F2EA89584B7082E4E
:10004000877F84BF88E1992781BD91BDEEEFF3E002
:10005000A0E6B0E088278D933197E9F783E389B96B
:1000600080E080BD88E18AB96624889A909A8AEFF8
:1000700090E010D090988AEF90E00CD0F7CFF894F1
:10008000FFCF3197F1F70895689462F80895E894E6
:1000900062F80895EF93FF93EE27E82BE92B31F0F8
:1000A000E0EDF7E03197F1F70197D1F7FF91EF918C
:0200B0000895B1
:00000001FF
