:1000000012C0189518951895189518951895189563
:100010001895189518951895189518951895189578
:100020001895189518958FE58DBFCCEFE4E94E2E05
:1000300084E08EBFD3E0F3E05F2EA89584B7082E4E
:10004000877F84BF88E1992781BD91BDEEEFF3E002
:10005000A0E6B0E088278D933197E9F783E389B96B
:1000600080E080BD88E18AB96624B99A81E88FBDB5
:1000700081E08EBDB99A84E18093600000916000B8
:100080000F3F10F009F012C0A0E6B0E08C91992764
:1000900090934B0080934A008AE090E02FD0A0E636
:1000A000B0E08C918F5F8C9308F4E8CF8FEF809352
:1000B00060004091600004E1041710F009F012C0E4
:1000C000A0E6B0E08C91992790934B0080934A0072
:1000D0008AE090E013D080916000815080936000AE
:1000E00008F0E7CFC8CFF894FFCF3197F1F7089524
:1000F000689462F80895E89462F80895EF93FF9386
:10010000EE27E82BE92B31F0E0EDF7E03197F1F73E
:0A0110000197D1F7FF91EF910895D8
:00000001FF
