:1000000012C0189518951895189518951895189563
:100010001895189518951895189518951895189578
:100020001895189518958FE58DBFCCEFE4E94E2E05
:1000300084E08EBFD3E0F3E05F2EA89584B7082E4E
:10004000877F84BF88E1992781BD91BDEEEFF3E002
:10005000A0E6B0E088278D933197E9F789E189B967
:1000600080E080BD88E18AB9662481E790E0A0E65F
:10007000B0E08D939C93A2E6B0E0E0E6F0E0F9D02A
:10008000E2E6F0E0ACE7B3E045D1ECE7F3E0A2E66E
:10009000B0E01127222704E0332797D0A2E6B0E092
:1000A00075D07AD081E790E0A0E6B0E08D939C9384
:1000B000A2E6B0E0E0E6F0E0DCD0E2E6F0E0ACE7BB
:1000C000B3E028D1ECE7F3E0A2E6B0E01127222765
:1000D00000E033277AD0A2E6B0E058D05DD081E7C7
:1000E00090E0A0E6B0E08D939C93A2E6B0E0E0E65D
:1000F000F0E0BFD0E2E6F0E0ACE7B3E01127222762
:1001000004E032E062D040D047D08DE090E0A0E63D
:10011000B0E08D939C93A2E6B0E0E0E6F0E0A9D0D9
:10012000E2E6F0E0ACE7B3E01127222703E032E09B
:100130004CD02AD031D081E790E0A0E6B0E08D939A
:100140009C93A2E6B0E0E0E6F0E093D0E2E6F0E0D7
:10015000ACE7B3E0112721E000E0332736D014D01C
:100160001BD0A2E6B0E0EEE1F3E026D0E2E6F0E05C
:10017000ACE7B3E01127222704E033E026D004D017
:100180000BD073CFF894FFCFACE7B3E08D91882309
:1001900011F005D0FBCF08958DE001D08AE05D9B82
:1001A000FECF8CB908953197F1F70895689462F8FD
:1001B0000895E89462F8089504D00D920020E1F7C4
:1001C0000895C8953196002008952E2E3F2E992728
:1001D00081918D3209F093958823D1F79A95E22D7C
:1001E000F32D112361F0091718F011F0101B01C055
:1001F000191B28F021F080E28D931A95E9F7808190
:100200008D3219F48D93319604C0222311F08BE2C4
:100210008D93091738F031F0091B21F080E38D939D
:100220000A95E9F781918D938823E1F7332351F003
:10023000EA2FFB2F319633958E9182933A95E1F711
:100240008EE28C930895000F111F221F331F089513
:1002500000951095209530950F5F1F4F2F4F3F4F02
:100260000895019110810EC0019111912191308169
:100270000BC00191108117FF05C03FEF2FEF04C0A5
:10028000008111272227332737FF03C0E1DF8DE2EA
:100290008D93CF93DF93CF92DF92EF92AA24BB246A
:1002A000CC24DD24EE2440E2CAE0DD2755E093E3D0
:1002B0008881890F87FD9F7083FD907F891B8993BB
:1002C0005A95A9F7C0DFAA1CBB1CCC1CDD1CEE1C78
:1002D0004A9551F7E894EFE0FF2782910ED0EB307A
:1002E000E0F71EF068948A2D0CD088278D93EF904C
:1002F000DF90CF90DF91CF910895982F829501D014
:10030000892F8F70805D26F0803309F408956894FA
:100310008D93089581918D938823E1F7089531326B
:04032000333435003D
:00000001FF
