:1000000012C0189518951895189518951895189563
:100010001895189518951895189518951895189578
:100020001895189518958FE58DBFCCEFE4E94E2E05
:1000300084E08EBFD3E0F3E05F2EA89584B7082E4E
:10004000877F84BF88E1992781BD91BDEEEFF3E002
:10005000A0E6B0E088278D933197E9F783E389B96B
:1000600080E080BD88E18AB96624B99A80E48FBDBA
:100070008CE08EBD85E080936000BB9A00E019E0C3
:100080002DE330E0A1E6B0E00D931D932D933C935A
:10009000A1E6B0E00D911D912D913C9140E051E021
:1000A00060E070E035D0A1E6B0E04D935D936D93D4
:1000B0007D93A1E6B0E00D911D912D913C91A0E6BC
:1000C000B0E04C9155276627772722D0A1E6B0E013
:1000D0004D935D936D937D93A1E6B0E00D911D91DD
:1000E0002D913C9141E050E060E070E06ED0A1E6DF
:1000F000B0E00D931D932D933D93A1E6B0E08D915B
:100100009C919BBD8ABDF894FFCF00FC05D008955B
:1001100030D005D001F8F9CF37D03FD00895842FE3
:10012000952FA62FB72FE894452B462B472B11F47C
:1001300068940895402F512F622F732F00271127A5
:1001400022273327F0E2440F551F661F771F001F39
:10015000111F221F331F081B190B2A0B3B0B416079
:1001600028F4080F191F2A1F3B1F4E7FFA9559F7D5
:1001700008950024E89477FF02C006D0689400F840
:1001800009D010F80124089512D04F5F5F4F6F4FD0
:100190007F4F0895E89437FF0895009510952095B6
:1001A00030950F5F1F4F2F4F3F4F68940895409534
:1001B00050956095709508953197F1F7089568947A
:1001C00062F80895E89462F80895041B150B260B55
:0401D000370B08954C
:00000001FF
