:1000000019C018951895189518951895189518955C
:100010001895189518951895189518951895189578
:100020001895189518951895189518951895189568
:10003000189518958FEF8DBFCCE9E4E34E2E84E040
:100040008EBFD4E0F4E05F2EA89584B7082E877F9A
:1000500084BF88E199278093600090936000EEEF61
:10006000F3E0A0E0B1E088278D933197E9F789E1CB
:100070008093C40080E08093C50088E18093C10034
:1000800066245F9A209A57984F9B01C004C04F99ED
:1000900001C00AC0F9CF289884EF91E019D0289ABE
:1000A00084EF91E015D0F0CF28988DE790E010D044
:1000B000289A8DE790E00CD0E7CFF894FFCF3197E6
:1000C000F1F70895689462F80895E89462F8089545
:1000D000EF93FF93EE27E82BE92B31F0E0EDF7E00B
:0E00E0003197F1F70197D1F7FF91EF91089555
:00000001FF
