:1000000012C0189518951895189518951895189563
:100010001895189518951895189518951895189578
:100020001895189518958FE58DBFCCEFE4E94E2E05
:1000300084E08EBFD3E0F3E05F2E42D0A89584B772
:10004000082E877F84BF88E1992781BD91BDEEEF9F
:10005000F3E0A0E6B0E088278D933197E9F783E3DA
:1000600089B980E080BD88E18AB944D0662474B73C
:10007000777F74BF8FE181BD87E081BD81B58860E6
:1000800081BD8CE07FD081E08093600000916000B2
:100090000E3110F009F011C0ACE7B3E0E0E6F0E09B
:1000A000C9D019D020D084EF91E098D0A0E6B0E07C
:1000B0008C918F5F8C9308F4E9CFE5CFF894FFCF54
:1000C00074B7777F74BF8FE181BD87E081BD81B553
:1000D000886081BD0895ACE7B3E08D91882311F06D
:1000E00005D0FBCF08958DE001D08AE05D9BFECF67
:1000F0008CB908958AEF90E071D0BF9ABE9ABD9AEC
:10010000BC9ABB9ABA9AC29885E090E067D0C3982F
:10011000C798C698C59AC49AC39AEF93FF93E4EC24
:10012000F0E050D0FF91EF91C39855D0C39AEF9370
:10013000FF93E4ECF0E046D0FF91EF91C3984BD0F1
:10014000C39AEF93FF93E4ECF0E03CD0FF91EF9182
:10015000C39841D0C498C39AEF93FF93E4ECF0E0C6
:1001600031D0FF91EF91C39836D088E20BD08EE06A
:1001700009D086E007D00895C29A829505D004D0B0
:100180002AD00895C298F9CF859510F4C49A01C079
:10019000C498859510F4C59A01C0C598859510F44A
:1001A000C69A01C0C698859510F4C79A01C0C79831
:1001B000C39AEF93FF93E4ECF0E004D0FF91EF914A
:1001C000C39808953197F1F70895689462F80895F7
:1001D000E89462F8089581E090E000C0EF93FF9307
:1001E000EE27E82BE92B31F0E0EDF7E03197F1F75E
:1001F0000197D1F7FF91EF910895000F111F221F72
:10020000331F089500951095209530950F5F1F4F6F
:100210002F4F3F4F0895019110810EC00191119110
:10022000219130810BC00191108117FF05C03FEF74
:100230002FEF04C0008111272227332737FF03C087
:10024000E1DF8DE28D93CF93DF93CF92DF92EF9238
:10025000AA24BB24CC24DD24EE2440E2CAE0DD271E
:1002600055E093E38881890F87FD9F7083FD907F20
:10027000891B89935A95A9F7C0DFAA1CBB1CCC1C0B
:10028000DD1CEE1C4A9551F7E894EFE0FF278291C0
:100290000ED0EB30E0F71EF068948A2D0CD0882742
:1002A0008D93EF90DF90CF90DF91CF910895982FAD
:1002B000829501D0892F8F70805D26F0803309F4FC
:0802C000089568948D930895E0
:00000001FF
