:1000000012C0189518951895189518951895189563
:100010001895189518951895189518951895189578
:100020001895189518958FE58DBFCCEFE4E94E2E05
:1000300084E08EBFD3E0F3E05F2EA89584B7082E4E
:10004000877F84BF88E1992781BD91BDEEEFF3E002
:10005000A0E6B0E088278D933197E9F783E389B96B
:1000600080E080BD88E18AB9662485EA80936000DB
:1000700080EF809361000091600040916100042353
:10008000A2E6B0E00C93ACE7B3E0E2E6F0E0F8D033
:1000900066D06DD085EA809360008FE08093610028
:1000A0000091600040916100042BA2E6B0E00C9347
:1000B000ACE7B3E0E2E6F0E0E3D051D058D085EE13
:1000C0008093600083E48093610000916000409120
:1000D00061000427A2E6B0E00C93ACE7B3E0E2E6EF
:1000E000F0E0CED03CD043D08FE180936300ACE70A
:1000F000B3E0E3E6F0E0C4D032D039D091E0A3E63B
:10010000B0E04FD0ACE7B3E0E3E6F0E0B9D027D001
:100110002ED091E0A3E6B0E044D0ACE7B3E0E3E654
:10012000F0E0AED01CD023D091E0A3E6B0E039D00F
:10013000ACE7B3E0E3E6F0E0A3D011D018D086E15D
:100140008093630098E0A3E6B0E021D0ACE7B3E091
:10015000E3E6F0E04BD003D00AD0F894FFCFACE751
:10016000B3E08D91882311F005D0FBCF08958DE089
:1001700001D08AE05D9BFECF8CB908953197F1F7ED
:100180000895689462F80895E89462F808959030AC
:1001900039F08C91880F08F481609A95D9F78C9387
:1001A0000895903029F08C91880F9A95E9F78C93F7
:1001B0000895000F111F221F331F089500951095F9
:1001C000209530950F5F1F4F2F4F3F4F089501919E
:1001D00010810EC001911191219130810BC00191CC
:1001E000108117FF05C03FEF2FEF04C000811127DA
:1001F0002227332737FF03C0E1DF8DE28D93CF93B2
:10020000DF93CF92DF92EF92AA24BB24CC24DD248B
:10021000EE2440E2CAE0DD2755E093E38881890FB0
:1002200087FD9F7083FD907F891B89935A95A9F75D
:10023000C0DFAA1CBB1CCC1CDD1CEE1C4A9551F770
:10024000E894EFE0FF2782910ED0EB30E0F71EF04C
:1002500068948A2D0CD088278D93EF90DF90CF90F3
:10026000DF91CF910895982F829501D0892F8F70BB
:10027000805D26F0803309F4089568948D93089585
:1002800041E003C042E001C044E0E40F8827F81FCA
:10029000829138E098E1880F991F9D933A95D1F7A4
:0C02A0004A95B1F700C088278D9308959F
:00000001FF
